{"abi":[{"type":"constructor","inputs":[{"name":"_fee","type":"uint256","internalType":"uint256"},{"name":"_aggregator","type":"address","internalType":"address"}],"stateMutability":"nonpayable"},{"type":"function","name":"addVerifier","inputs":[{"name":"_verifier","type":"address","internalType":"address"}],"outputs":[],"stateMutability":"nonpayable"},{"type":"function","name":"aggregator","inputs":[],"outputs":[{"name":"","type":"address","internalType":"address"}],"stateMutability":"view"},{"type":"function","name":"authorizedVerifiers","inputs":[{"name":"","type":"address","internalType":"address"}],"outputs":[{"name":"","type":"bool","internalType":"bool"}],"stateMutability":"view"},{"type":"function","name":"getVerifierResult","inputs":[{"name":"_requestId","type":"uint256","internalType":"uint256"},{"name":"_verifier","type":"address","internalType":"address"}],"outputs":[{"name":"","type":"string","internalType":"string"}],"stateMutability":"view"},{"type":"function","name":"getVerifiersForRequest","inputs":[{"name":"_requestId","type":"uint256","internalType":"uint256"}],"outputs":[{"name":"","type":"address[]","internalType":"address[]"}],"stateMutability":"view"},{"type":"function","name":"owner","inputs":[],"outputs":[{"name":"","type":"address","internalType":"address"}],"stateMutability":"view"},{"type":"function","name":"removeVerifier","inputs":[{"name":"_verifier","type":"address","internalType":"address"}],"outputs":[],"stateMutability":"nonpayable"},{"type":"function","name":"requestCount","inputs":[],"outputs":[{"name":"","type":"uint256","internalType":"uint256"}],"stateMutability":"view"},{"type":"function","name":"requests","inputs":[{"name":"","type":"uint256","internalType":"uint256"}],"outputs":[{"name":"requester","type":"address","internalType":"address"},{"name":"text","type":"string","internalType":"string"},{"name":"timestamp","type":"uint256","internalType":"uint256"},{"name":"isComplete","type":"bool","internalType":"bool"},{"name":"aggregateResult","type":"string","internalType":"string"}],"stateMutability":"view"},{"type":"function","name":"setAggregator","inputs":[{"name":"_aggregator","type":"address","internalType":"address"}],"outputs":[],"stateMutability":"nonpayable"},{"type":"function","name":"setVerificationFee","inputs":[{"name":"_fee","type":"uint256","internalType":"uint256"}],"outputs":[],"stateMutability":"nonpayable"},{"type":"function","name":"submitAggregateResult","inputs":[{"name":"_requestId","type":"uint256","internalType":"uint256"},{"name":"_aggregateResult","type":"string","internalType":"string"}],"outputs":[],"stateMutability":"nonpayable"},{"type":"function","name":"submitRequest","inputs":[{"name":"_text","type":"string","internalType":"string"}],"outputs":[{"name":"","type":"uint256","internalType":"uint256"}],"stateMutability":"payable"},{"type":"function","name":"submitVerification","inputs":[{"name":"_requestId","type":"uint256","internalType":"uint256"},{"name":"_result","type":"string","internalType":"string"}],"outputs":[],"stateMutability":"nonpayable"},{"type":"function","name":"verificationFee","inputs":[],"outputs":[{"name":"","type":"uint256","internalType":"uint256"}],"stateMutability":"view"},{"type":"function","name":"withdrawFees","inputs":[],"outputs":[],"stateMutability":"nonpayable"},{"type":"event","name":"AggregateResultSubmitted","inputs":[{"name":"requestId","type":"uint256","indexed":false,"internalType":"uint256"},{"name":"aggregateResult","type":"string","indexed":false,"internalType":"string"}],"anonymous":false},{"type":"event","name":"RequestSubmitted","inputs":[{"name":"requestId","type":"uint256","indexed":false,"internalType":"uint256"},{"name":"requester","type":"address","indexed":false,"internalType":"address"},{"name":"text","type":"string","indexed":false,"internalType":"string"}],"anonymous":false},{"type":"event","name":"ThresholdReached","inputs":[{"name":"requestId","type":"uint256","indexed":false,"internalType":"uint256"},{"name":"verifiers","type":"address[]","indexed":false,"internalType":"address[]"}],"anonymous":false},{"type":"event","name":"VerificationResultSubmitted","inputs":[{"name":"requestId","type":"uint256","indexed":false,"internalType":"uint256"},{"name":"verifier","type":"address","indexed":false,"internalType":"address"},{"name":"result","type":"string","indexed":false,"internalType":"string"}],"anonymous":false}],"bytecode":{"object":"0x608060405234801561001057600080fd5b5060405161107838038061107883398101604081905261002f91610065565b60008054336001600160a01b031991821617909155600292909255600180549092166001600160a01b03919091161790556100a2565b6000806040838503121561007857600080fd5b825160208401519092506001600160a01b038116811461009757600080fd5b809150509250929050565b610fc7806100b16000396000f3fe6080604052600436106100f35760003560e01c80639000b3d61161008a578063ca2dfd0a11610059578063ca2dfd0a146102c4578063d77456a4146102e4578063e2e46b5214610311578063f9120af61461032457600080fd5b80639000b3d61461022e5780639a8917161461024e578063a8c278a21461028e578063aae9d5f2146102a457600080fd5b80635badbe4c116100c65780635badbe4c146101995780636670c4d5146101bd57806381d12c58146101dd5780638da5cb5b1461020e57600080fd5b8063245a7bfc146100f8578063476343ee1461013557806347b801b51461014c57806357b2fa361461016c575b600080fd5b34801561010457600080fd5b50600154610118906001600160a01b031681565b6040516001600160a01b0390911681526020015b60405180910390f35b34801561014157600080fd5b5061014a610344565b005b34801561015857600080fd5b5061014a610167366004610acf565b6103b4565b34801561017857600080fd5b5061018c610187366004610b1b565b610551565b60405161012c9190610b34565b3480156101a557600080fd5b506101af60045481565b60405190815260200161012c565b3480156101c957600080fd5b5061014a6101d8366004610acf565b6105c0565b3480156101e957600080fd5b506101fd6101f8366004610b1b565b610682565b60405161012c959493929190610bc7565b34801561021a57600080fd5b50600054610118906001600160a01b031681565b34801561023a57600080fd5b5061014a610249366004610c33565b6107d3565b34801561025a57600080fd5b5061027e610269366004610c33565b60056020526000908152604090205460ff1681565b604051901515815260200161012c565b34801561029a57600080fd5b506101af60025481565b3480156102b057600080fd5b5061014a6102bf366004610b1b565b610821565b3480156102d057600080fd5b5061014a6102df366004610c33565b610850565b3480156102f057600080fd5b506103046102ff366004610c55565b61089b565b60405161012c9190610c81565b6101af61031f366004610c94565b610955565b34801561033057600080fd5b5061014a61033f366004610c33565b610a3a565b6000546001600160a01b031633146103775760405162461bcd60e51b815260040161036e90610cd6565b60405180910390fd5b600080546040516001600160a01b03909116914780156108fc02929091818181858888f193505050501580156103b1573d6000803e3d6000fd5b50565b60008381526003602081905260409091209081015460ff16156104155760405162461bcd60e51b815260206004820152601960248201527814995c5d595cdd08185b1c9958591e4818dbdb5c1b195d1959603a1b604482015260640161036e565b6000805b600683015481101561047957336001600160a01b031683600601828154811061044457610444610d17565b6000918252602090912001546001600160a01b0316036104675760019150610479565b8061047181610d2d565b915050610419565b50806104a757600682018054600181018255600091825260209091200180546001600160a01b031916331790555b60068201546003116104f0577fe6ea553263580d8088ae4101287b6c778b588bfe3a0d9a22520a3676b8779ce385836006016040516104e7929190610d54565b60405180910390a15b336000908152600583016020526040902061050c848683610e4f565b507feb9627971da080551200255cfdb72d2d5cf31b54afc4f887e151f5c41038245e853386866040516105429493929190610f39565b60405180910390a15050505050565b6000818152600360209081526040918290206006018054835181840281018401909452808452606093928301828280156105b457602002820191906000526020600020905b81546001600160a01b03168152600190910190602001808311610596575b50505050509050919050565b60008381526003602081905260409091209081015460ff16156106215760405162461bcd60e51b815260206004820152601960248201527814995c5d595cdd08185b1c9958591e4818dbdb5c1b195d1959603a1b604482015260640161036e565b60048101610630838583610e4f565b5060038101805460ff191660011790556040517fe31f20793392765e276dba0e2f23eab1e8e6681b14935aada0dfb20c5f66832c9061067490869086908690610f6e565b60405180910390a150505050565b600360205260009081526040902080546001820180546001600160a01b0390921692916106ae90610dc6565b80601f01602080910402602001604051908101604052809291908181526020018280546106da90610dc6565b80156107275780601f106106fc57610100808354040283529160200191610727565b820191906000526020600020905b81548152906001019060200180831161070a57829003601f168201915b50505050600283015460038401546004850180549495929460ff90921693509061075090610dc6565b80601f016020809104026020016040519081016040528092919081815260200182805461077c90610dc6565b80156107c95780601f1061079e576101008083540402835291602001916107c9565b820191906000526020600020905b8154815290600101906020018083116107ac57829003601f168201915b5050505050905085565b6000546001600160a01b031633146107fd5760405162461bcd60e51b815260040161036e90610cd6565b6001600160a01b03166000908152600560205260409020805460ff19166001179055565b6000546001600160a01b0316331461084b5760405162461bcd60e51b815260040161036e90610cd6565b600255565b6000546001600160a01b0316331461087a5760405162461bcd60e51b815260040161036e90610cd6565b6001600160a01b03166000908152600560205260409020805460ff19169055565b60008281526003602090815260408083206001600160a01b038516845260050190915290208054606091906108cf90610dc6565b80601f01602080910402602001604051908101604052809291908181526020018280546108fb90610dc6565b80156109485780601f1061091d57610100808354040283529160200191610948565b820191906000526020600020905b81548152906001019060200180831161092b57829003601f168201915b5050505050905092915050565b600060025434101561099c5760405162461bcd60e51b815260206004820152601060248201526f496e73756666696369656e742066656560801b604482015260640161036e565b60048054600091826109ad83610d2d565b90915550600081815260036020526040902080546001600160a01b03191633178155909150600181016109e1858783610e4f565b5042600282015560038101805460ff191690556040517fc86d611ad2e111a956a8759fe9c4422543f4583e462628c95cb2c20e1c0df9eb90610a2a908490339089908990610f39565b60405180910390a1509392505050565b6000546001600160a01b03163314610a645760405162461bcd60e51b815260040161036e90610cd6565b600180546001600160a01b0319166001600160a01b0392909216919091179055565b60008083601f840112610a9857600080fd5b50813567ffffffffffffffff811115610ab057600080fd5b602083019150836020828501011115610ac857600080fd5b9250929050565b600080600060408486031215610ae457600080fd5b83359250602084013567ffffffffffffffff811115610b0257600080fd5b610b0e86828701610a86565b9497909650939450505050565b600060208284031215610b2d57600080fd5b5035919050565b6020808252825182820181905260009190848201906040850190845b81811015610b755783516001600160a01b031683529284019291840191600101610b50565b50909695505050505050565b6000815180845260005b81811015610ba757602081850181015186830182015201610b8b565b506000602082860101526020601f19601f83011685010191505092915050565b6001600160a01b038616815260a060208201819052600090610beb90830187610b81565b85604084015284151560608401528281036080840152610c0b8185610b81565b98975050505050505050565b80356001600160a01b0381168114610c2e57600080fd5b919050565b600060208284031215610c4557600080fd5b610c4e82610c17565b9392505050565b60008060408385031215610c6857600080fd5b82359150610c7860208401610c17565b90509250929050565b602081526000610c4e6020830184610b81565b60008060208385031215610ca757600080fd5b823567ffffffffffffffff811115610cbe57600080fd5b610cca85828601610a86565b90969095509350505050565b60208082526021908201527f4f6e6c79206f776e65722063616e2063616c6c20746869732066756e6374696f6040820152603760f91b606082015260800190565b634e487b7160e01b600052603260045260246000fd5b600060018201610d4d57634e487b7160e01b600052601160045260246000fd5b5060010190565b60006040820184835260206040818501528185548084526060860191508660005282600020935060005b81811015610da35784546001600160a01b031683526001948501949284019201610d7e565b5090979650505050505050565b634e487b7160e01b600052604160045260246000fd5b600181811c90821680610dda57607f821691505b602082108103610dfa57634e487b7160e01b600052602260045260246000fd5b50919050565b601f821115610e4a57600081815260208120601f850160051c81016020861015610e275750805b601f850160051c820191505b81811015610e4657828155600101610e33565b5050505b505050565b67ffffffffffffffff831115610e6757610e67610db0565b610e7b83610e758354610dc6565b83610e00565b6000601f841160018114610eaf5760008515610e975750838201355b600019600387901b1c1916600186901b178355610f09565b600083815260209020601f19861690835b82811015610ee05786850135825560209485019460019092019101610ec0565b5086821015610efd5760001960f88860031b161c19848701351681555b505060018560011b0183555b5050505050565b81835281816020850137506000828201602090810191909152601f909101601f19169091010190565b8481526001600160a01b0384166020820152606060408201819052600090610f649083018486610f10565b9695505050505050565b838152604060208201526000610f88604083018486610f10565b9594505050505056fea2646970667358221220667ad624e727defacb9068bb2d959ad9384ba9c0731a192e5705b87cd3cd746a64736f6c63430008140033","linkReferences":{}},"methodIdentifiers":{"addVerifier(address)":"9000b3d6","aggregator()":"245a7bfc","authorizedVerifiers(address)":"9a891716","getVerifierResult(uint256,address)":"d77456a4","getVerifiersForRequest(uint256)":"57b2fa36","owner()":"8da5cb5b","removeVerifier(address)":"ca2dfd0a","requestCount()":"5badbe4c","requests(uint256)":"81d12c58","setAggregator(address)":"f9120af6","setVerificationFee(uint256)":"aae9d5f2","submitAggregateResult(uint256,string)":"6670c4d5","submitRequest(string)":"e2e46b52","submitVerification(uint256,string)":"47b801b5","verificationFee()":"a8c278a2","withdrawFees()":"476343ee"},"id":15}